:0200000460009A
:100000004643464200000156000000000101020084
:1000100000000000000000000000000000000000E0
:1000200000000000000000000000000000000000D0
:1000300000000000000000000000000000000000C0
:1000400000000000010403000000000000000000A8
:100050000000200000000000000000000000000080
:100060000000000000000000000000000000000090
:100070000000000000000000000000000000000080
:10008000EB04180A063204260000000000000000FD
:10009000050404240000000000000000000000002F
:1000A0000000000000000000000000000000000050
:1000B0000604000000000000000000000000000036
:1000C0000000000000000000000000000000000030
:1000D00020041808000000000000000000000000DC
:1000E0000000000000000000000000000000000010
:1000F0000000000000000000000000000000000000
:1001000000000000000000000000000000000000EF
:100110000204180804200000000000000000000095
:1001200000000000000000000000000000000000CF
:10013000600400000000000000000000000000005B
:1001400000000000000000000000000000000000AF
:10015000000000000000000000000000000000009F
:10016000000000000000000000000000000000008F
:10017000000000000000000000000000000000007F
:10018000000000000000000000000000000000006F
:10019000000000000000000000000000000000005F
:1001A000000000000000000000000000000000004F
:1001B000000000000000000000000000000000003F
:1001C000000100000010000001000000000000001D
:1001D000000000000000000000000000000000001F
:1001E000000000000000000000000000000000000F
:1001F00000000000000000000000000000000000FF
:10020000D4D4D4D4D4D4D4D4D4D4D4D4D4D4D4D4AE
:10100000D10020400020006000000000000000002F
:1010100020100060001000600000000000000000D0
:10102000000000602497000000000000EFBEADDE6D
:10103000124880F3088812481249016000F036F81F
:10104000114812490022814201D004C0FBE7104838
:101050001049114A814202D008CA08C0FAE70F4875
:101060004FF47001026842EA01020260BFF34F8F41
:10107000BFF36F8F00F014F800DE00000040002086
:1010800008ED00E000400020005000206C800020AF
:10109000B84200204C4400202497006088ED00E016
:1010A00040F6511CC0F2000C6047D4D4204840F2F6
:1010B0009C41884219D040F2924188420CBF1D4A9F
:1010C0001D4A1E4B5360136823F0800313601C48B5
:1010D0001C4901BF1C480A0C8264C1F30F01416422
:1010E000016C41F00401016402E0184815490160F7
:1010F0001748184A824205D01749814202D008CACF
:1011000008C0FAE71548164A824205D015498142BF
:1011100002D008CA08C0FAE71348144A824205D030
:101120001349814202D008CA08C0FAE7704700009C
:10113000240400000080034000C00B4020C528D9D3
:1011400000C00A40AAAAFAFF00400E4060004F44C7
:1011500000000000B8220060FC6200000040002097
:1011600000200060B842002000002020B48500600C
:1011700070112020D4D4D4D4D4D4D4D4D4D4D4D4BE
:10118000D4D4D4D4D4D4D4D4D4D4D4D4D4D4D4D41F
:10119000D4D4D4D4D4D4D4D4D4D4D4D4D4D4D4D40F
:1011A000D4D4D4D4D4D4D4D4D4D4D4D4D4D4D4D4FF
:1011B000D4D4D4D4D4D4D4D4D4D4D4D4D4D4D4D4EF
:1020000000400020311000602D270000E162000038
:102010002D2700002D2700002D27000000000000C4
:102020000000000000000000000000002D2700005C
:102030002D270000000000002D2700008B0C000061
:102040002D2700002D2700002D2700002D27000040
:102050002D2700002D2700002D2700002D27000030
:102060002D2700002D2700002D2700002D27000020
:102070002D2700002D2700002D2700002D27000010
:102080002D270000000000000000000000000000FC
:102090002D2700002D2700002D2700002D270000F0
:1020A0002D2700002D2700002D2700002D270000E0
:1020B0002D2700002D2700002D2700002D270000D0
:1020C0002D2700002D2700002D2700002D270000C0
:1020D0002D2700002D2700002D2700002D270000B0
:1020E0002D2700002D2700002D2700002D270000A0
:1020F0002D2700002D2700002D2700002D27000090
:102100002D2700002D2700002D2700002D2700007F
:10211000000000002D270000000000002D27000017
:102120002D2700002D2700002D2700002D2700005F
:102130002D2700002D270000000000002D270000A3
:102140002D2700002D2700002D2700002D2700003F
:102150002D2700002D2700000000000000000000D7
:102160002D2700002D2700002D2700002D2700001F
:102170002D2700002D2700002D2700002D2700000F
:102180002D2700002D2700002D2700002D270000FF
:102190002D2700002D2700002D2700002D270000EF
:1021A0002D2700002D2700002D2700002D270000DF
:1021B0002D2700002D2700002D2700002D270000CF
:1021C0002D2700002D2700002D2700000000000013
:1021D0002D2700002D2700002D2700002D270000AF
:1021E0002D2700002D2700002D2700002D2700009F
:1021F0002D2700002D2700002D2700002D2700008F
:102200002D2700002D2700002D2700002D2700007E
:102210002D2700002D2700002D2700002D2700006E
:102220002D2700002D2700002D2700002D2700005E
:102230002D2700002D2700002D27000000000000A2
:10224000000000002D2700002D2700002D27000092
:102250002D2700002D2700002D2700002D2700002E
:102260002D2700002D2700002D2700002D2700001E
:102270002D2700002D2700002D2700002D2700000E
:102280002D2700002D2700002D2700002D270000FE
:102290002D2700002D2700002D2700002D270000EE
:1022A0002D2700002D2700002D2700000000000032
:0822B0002D2700002D2700007E
:1022B800D0B502AF84B00188062911D181690968B7
:1022C800BFF35F8F79B10023827F009302AB04468E
:1022D8001846012303F0AAFF0820208004B0D0BDCF
:1022E800072004B0D0BD40F2D43040F25842C2F2C8
:1022F8002000C2F22002222105F0F2F8F0B503AF67
:102308004DF804BD86B0044608880D46411E0329D1
:1023180027D3052825D0072832D1D5F8AC00D5F821
:10232800063069898028D5F80220ADF80C10CDE96F
:1023380001236BD8E9680968BFF35F8F00295AD079
:10234800C0F18003AA7C2844009300F1240304A868
:1023580004F065F89DF81000C0B39DF81100D8B9D5
:102368002EE0E8680168BFF35F8F002943D0AA7C9C
:1023780004A800260123009604F051F82E801FE0DF
:10238800E8680168BFF35F8FA9B30020AA7C0090BA
:1023980004A8012304F043F8E868092129800068AB
:1023A800BFF35F8F38B3A97C012204F031F9A86923
:1023B8000068BFF35F8FF0B1A97F012204F028F90C
:1023C8000420607206B05DF804BBF0BD0598D5E93D
:1023D8002B120844C5F8AC009042F1D3DDE90101A5
:1023E8000623BDF80C202B8020606160228106B096
:1023F8005DF804BBF0BD40F2D43040F25842C2F25E
:102408002000C2F22002222105F06AF840F2680298
:102418008021C2F2200205F008FCF0B503AF2DE9D7
:10242800000F85B00446C8680D460168BFF35F8F8A
:10243800002900F08B8005F124068020AA7C0090FA
:1024480002A8334603F0EBFF9DF8080018B19DF889
:10245800090060B921E0039A812A80F0828002A8ED
:10246800314604F02EFA9DF8110004281BD1E868C3
:10247800092129800068BFF35F8F002866D0A97CF6
:10248800012204F0C5F8A8690068BFF35F8F00282F
:102498005CD0A97F012204F0BBF80420607205B06B
:1024A800BDE8000FF0BDE868BDF810A09DF80F600A
:1024B8009DF80E90BDF80CB0DDF808800068BFF3F9
:1024C8005F8F002842D0A97C002204F0A1F8BEB199
:1024D8000420A5F80AA06E7285F80890A5F806B041
:1024E800C5F802802880A4F808A0E67184F8069050
:1024F800A4F804B0C4F8008005B0BDE8000FF0BD32
:10250800BBF1000F11D0BBF1800FB0D80020A5F8A7
:102518000AA0C5E92B0B6872072085F80890A5F872
:1025280006B0C5F802802880B7E70620A4F808A0FE
:1025380028800020C5F8B000E07184F80690A080DB
:10254800C4F8008005B0BDE8000FF0BD40F2D430FB
:1025580040F25842C2F22000C2F22002222104F0C6
:10256800BFFF40F278031046C2F2200380211A46CA
:1025780005F07AFBB0B502AF84B00446D0E9295122
:10258800D0F8AC00D4F8B0C0002DA38BAE46ACEBAD
:10259800000208BF04F1240E9A4238BF1346002DEA
:1025A80003EB000C08BF80219C4523D38C4528D819
:1025B800A1690968BFF35F8F51B3A27F00930EEB47
:1025C800000302A803F032FE9DF8080080B90398C2
:1025D800D4E92B120144C4F8AC10914208D300216D
:1025E800A28BC4F8A4100321904208BF02212180C5
:1025F80004B0B0BD40F288026146C2F2200205F084
:1026080052FB40F288026046C2F2200205F02CFB21
:1026180040F2D43040F25842C2F22000C2F2200206
:10262800222104F05DFF0000B0B502AF84B001883C
:102638000139072939D8DFE801F0041C0A3838388D
:102648003832FFF797FF0024204604B0B0BDC168B8
:102658000A68BFF35F8F002A41D0817C0546104687
:102668000022002403F0D4FF05202880204604B06F
:10267800B0BD81690968BFF35F8F81B3827F05466A
:1026880002A800240123009403F0D0FD9DF808005F
:10269800002804BF03202880204604B0B0BD0021D4
:1026A80001240180204604B0B0BDC168092202801F
:1026B8000A68BFF35F8F92B1817C044610460122FD
:1026C80003F0A6FFA0690068BFF35F8F38B1A17F50
:1026D800012203F09DFF0024204604B0B0BD40F263
:1026E800D43040F25842C2F22000C2F22002222125
:1026F80004F0F6FEF0B503AF2DE9000B8CB00C46E4
:102708000188042926D1B0F8069080462430059027
:1027180001A80B9009A8002115468022079106926E
:102728008DF8201003910191099104F085FBC0B246
:1027380008280BD1EE0009AD8EB1F4E802010A6950
:1027480029469047083EC1B20829F5D00CB0BDE82B
:10275800000BF0BD07200CB0BDE8000BF0BD09A8C8
:1027680004F03BFC079980291DD9D8F80C000922F0
:10277800A8F800200068BFF35F8F30B398F81210F4
:10278800012203F045FFD8F818000068BFF35F8FF7
:10279800D8B198F81E10012203F03AFF02200CB0BD
:1027A800BDE8000BF0BD894540464FF0000238BF38
:1027B8004946C0E92B210121A8F80010FFF7DAFEED
:1027C80008200CB0BDE8000BF0BD40F2D43040F258
:1027D8005842C2F22000C2F22002222104F080FEF8
:1027E8000288042A1CBF07207047F0B503AF4DF8D4
:1027F80004BD4C68802C03D902205DF804BBF0BDF1
:10280800096800F12402C68805461046224605F0EC
:10281800C7FD0020A64238BF3446C5E92B04012075
:1028280028802846FFF7A6FE08205DF804BBF0BD07
:10283800B0B502AF88B00446008804282DD1D1E98C
:1028480000120020802306908DF81C000290009052
:102858006846059304F12403E588049304F033FAE9
:10286800C0B2082817D10698802819D9E06809212C
:1028780021800068BFF35F8F08B3A17C012203F0B9
:10288800C7FEA0690068BFF35F8FC0B1A17F0122B6
:1028980003F0BEFE022008B0B0BD072008B0B0BDEE
:1028A80085424FF0000138BF2846C4E92B100120AB
:1028B80020802046FFF75EFE082008B0B0BD40F239
:1028C800D43040F25842C2F22000C2F22002222143
:1028D80004F006FEF0B503AF2DE9000788B0044602
:1028E8000088042848D1D1E9000680228D6800219B
:1028F800059204F12402069104928DF81C100291AD
:10290800009101686846B4F8068004F0DFF8C0B2A8
:1029180008282DD18DB106EBC505E9464FF0000A10
:10292800D6E90001CA6849469047C1B208291FD1B3
:102938000836CDF808A0AE42F2D1684604F02AF96C
:10294800069880281DD9E068092121800068BFF316
:102958005F8F38B3A17C012203F05AFEA06900689A
:10296800BFF35F8FF0B1A17F012203F051FE022077
:1029780008B0BDE80007F0BD072008B0BDE80007B3
:10298800F0BD80454FF0000138BF4046C4E92B1028
:10299800012020802046FFF7EDFD082008B0BDE8A3
:1029A8000007F0BD40F2D43040F25842C2F2200095
:1029B800C2F22002222104F093FDB0B502AF88B024
:1029C8000446008804282CD109680020802206903B
:1029D8008DF81C00029000906846059204F12402CC
:1029E800E588049203F0D9FFC0B2082817D10698E9
:1029F800802819D9E068092121800068BFF35F8F1A
:102A080008B3A17C012203F003FEA0690068BFF3AC
:102A18005F8FC0B1A17F012203F0FAFD022008B048
:102A2800B0BD072008B0B0BD85424FF0000138BFE7
:102A38002846C4E92B10012020802046FFF79AFD84
:102A4800082008B0B0BD40F2D43040F25842C2F27B
:102A58002000C2F22002222104F042FDB0B502AFEC
:102A68008AB004460088042833D1002080210790CA
:102A7800A7F10A028DF8200002230390019040F28A
:102A88000940069104F1240127F80A0C01A80591D0
:102A98000321E58803F033FFC0B2082817D107984F
:102AA800802819D9E068092121800068BFF35F8F69
:102AB80008B3A17C012203F0ABFDA0690068BFF355
:102AC8005F8FC0B1A17F012203F0A2FD02200AB0EE
:102AD800B0BD07200AB0B0BD85424FF0000138BF35
:102AE8002846C4E92B10012020802046FFF742FD2C
:102AF80008200AB0B0BD40F2D43040F25842C2F2C9
:102B08002000C2F22002222104F0EAFCD0B502AF74
:102B18000446C068092121800068BFF35F8F78B13F
:102B2800A17C012203F074FDA0690068BFF35F8FE8
:102B380000281FBFA17F0122BDE8D04003F068BD77
:102B480040F2D43040F25842C2F22000C2F22002D1
:102B5800222104F0C5FC084640F29801C2F2200187
:102B6800022204F05BBF48F200000121C2F200001B
:102B78000068BFF35F8F4176704780B56F4686B0B7
:102B880048F2000940F6B7080DF1040BC2F200093B
:102B98000025C0F2000801E0BFF32F8FD9F800A08C
:102BA8009AF818000028F9D00AF11900D0E84F1F48
:102BB8000129F1D1C0E8415F0029F7D1BFF35F8F48
:102BC8009AF81400B0B9D44659469CE85D005DC136
:102BD800584601F0F4F801208AF8140040F2807099
:102BE800BFF35F8F8AF81850C2F22000C1684046D0
:102BF8008847D3E740F2F400C2F2200005F0EAFA71
:102C080080B56F468EB004F061FA48F26000012189
:102C1800C2F2000048F26C0401700020ADF81C00FC
:102C280048F20000C2F2000001A9016044F200006D
:102C3800C2F20004C2F20000A04203D904F050FA24
:102C4800A04203D900F015F8FFF797FF01210020F3
:102C5800099140F23011C2F220010C900B9004202F
:102C6800089140F2F4010A9008A8C2F2200104F089
:102C78002CFCF0B503AF2DE9000FADF2145DD5AC17
:102C8800204601F0B3FA03A8214600F0F5FD0A98A2
:102C98000DF10C09039048F27C10C4F21F00DDF816
:102CA80034B0DDF83C80D0F8F4114BF20801C0F2E2
:102CB8000101C0F8F411D0F8F021C0F8F011052294
:102CC800416862F303014160DDF80CA0DAF80410F2
:102CD80021F40031CAF80410016862F303010160AD
:102CE800DAF8040020F48030CAF80400484601F0FD
:102CF80026FC46F2000CBFF35F8FC2F2000C0CF505
:102D08009A5454E8002F42F0004344E80036002E5D
:102D1800F7D1B2F1FF3FBFF35F8F40F3F88045F280
:102D2800000E0123C2F2000E0EF58062BFF35F8F22
:102D3800D2E84F6FC2E8453F002DF9D1CDE9011027
:102D4800002EBFF35F8F40F0ED80CDE90CE20CF56B
:102D580090520CF580501021CDE90AB84FF00008C8
:102D6800CDE9041048460891CDE906120021CDF8B6
:102D78000CC0ADF83880099402F047F8CE46D5A9C2
:102D8800BEE87D0001F1040CACE87D009EE87D0002
:102D98008CE87D0048F20006C2F20006321D484663
:102DA8008DF88883CDF8548301F02CF903AB0DF529
:102DB8004D7C0FCB8CE80F0009F11001D5A8E82253
:102DC80005F094FB4EF21000CEF20000016821F0ED
:102DD80001010160016841F00401016042F2BF7124
:102DE800C0F209014160016841F002010160016817
:102DF80041F00101016048F254000121C2F20000D3
:102E0800BFF35F8F0171BFF35F8F306800F1180265
:102E1800D2E84F3F43B9BFF35F8FC2E8431FB3B156
:102E2800D2E84F3F002BF8D040F2E40040F29C0378
:102E3800C2F22000BFF32F8F009040F2AC0003AA2B
:102E4800C2F22000C2F220032B2104F07BFB41F2E6
:102E5800682B41F2A02141F2982241F2582841F210
:102E680070150024C2F2200BC2F22001C2F2200227
:102E780003AEBFF35F8FC0E9031B0475C2F22008DD
:102E8800C2F2200580E824014FF00109BFF35F8FEB
:102E9800D5A980F819903046E82205F027FBCDAB7C
:102EA8000DF5517C0FCB8CE80F0028463146E822FF
:102EB80005F01CFB4820D1AB8BF82E001020CBE985
:102EC800080451208BF816001120CBE902040FCB1F
:102ED800ABF82C9088E80F0041F29822C2F2200249
:102EE800DDE90110CBE9069AABF81490C2E90001BC
:102EF80041F2A020C2F22000CBE9004A04700DF292
:102F0800145DBDE8000FBDE8F04004F0E1B840F200
:102F1800185040F29852C2F22000C2F220021F213B
:102F280004F057FA40F2543040F2A852C2F220009E
:102F3800C2F22002202104F04CFA48F25400C2F2F6
:102F4800000000F0EEBEF0B503AF4DF804BD826896
:102F5800012A2FD10D46C36841698B4246D20269C6
:102F6800D0F818C0D45C0134D4540CF102038B425D
:102F78001CD80CF58074A142A64638BF8E469C42E8
:102F88003BD3AEEB0304052C10D3AC7995F807E0DE
:102F98002E7AAD88D45413440CF107045E702E0ABF
:102FA8008C429D7083F804E0DE7007D902205DF83A
:102FB80004BBF0BD07205DF804BBF0BD8C4524D2EE
:102FC800072302F80C300CF101038B423FBF0521A7
:102FD800D154846108203CBF5DF804BBF0BD40F2C9
:102FE800BC121846C2F2200204F08EFA40F2CC124B
:102FF8001846C2F2200204F087FA40F29C121846E2
:10300800C2F22002714604F04EFE40F2AC12604655
:10301800C2F2200204F078FAF0B503AF2DE90007F8
:1030280086B01D469146884682468AB108EBC90695
:103038004446D4E900012A464B6A51469847BAF8F3
:10304800000040F00200062826D10834B442F0D12E
:10305800687A28B3BAF8001041F0020006281BD19C
:10306800DAF80C000921AAF800100068BFF35F8F96
:10307800002800F088809AF81210012203F0C8FA9C
:10308800DAF818000068BFF35F8F00287BD09AF841
:103098001E10012203F0BCFA06B0BDE80007F0BD1F
:1030A800297AA87949B3012912D0022908BF002832
:1030B800D0D16988DAF8DC0001F08F0103F017FB42
:1030C800BAF800100429C7D1AAF8240000202EE07D
:1030D80030B30A28BED1BAF800100429BCD1BAF816
:1030E8000610002001228AF82400AAF800200029EE
:1030F80018BF0121CAE92B0123E090B3062824D088
:103108000828A7D19AF8E20001210591A7F1220128
:1031180002380491B0FA80F0400907F8220C2DE03B
:10312800BAF80010042997D10020AAF82400BAF8A8
:1031380006200121AAF80010022A28BF0222CAE9A3
:103148002B025046FFF716FA84E769884A46288812
:103158005346CDE900010AF1B400414600F0E6F813
:1031680078E79AF8E00002229AF8E1100592A7F1B0
:10317800220260F34101049227F8221C04A9504658
:10318800FFF72EFB66E740F2D43040F25842C2F215
:103198002000C2F22002222104F0A2F9F0B503AF08
:1031A8004DF8048D84B01D4680468AB101EBC204F7
:1031B8000E46D6E900012A460B6A41469847B8F8F8
:1031C800000040F00200062834D10836A642F0D1AB
:1031D800687A98B36EE040F0020006282AD1D8F841
:1031E8000C000921A8F800100068BFF35F8FB0B188
:1031F80098F81210012203F00BFAD8F818000068AA
:10320800BFF35F8F00281FBF98F81E10012204B07B
:103218005DF8048B1CBFBDE8F04003F0F9B940F23B
:10322800D43040F25842C2F22000C2F220022221D9
:1032380004F056F904B05DF8048BF0BD2A7AA87939
:1032480029886AB3012A10D0022A33D1012838D03C
:10325800032808BF00292DD169880122D8F8DC008D
:1032680001F08F0103F0D4F950E00B2822D1002996
:1032780004BFB8F8000006281CD1D8F81800016867
:10328800BFF35F8F0029CAD098F81E200020009055
:1032980002A8012302F0CAFF0820A8F8000009E0EC
:1032A8000138082806D8DFE800F0080520051705CA
:1032B80005052600B8F800008DE70129FAD100209D
:1032C80016E00029F6D169880022D8F8DC0001F060
:1032D8008F0103F09DF919E0481E80B27F28E9D2DA
:1032E800D8F8DC0002F0FDFE0DE00129E2D1012052
:1032F80088F8E0000AE019B10129DBD1022003E0D7
:1033080098F8E20030B1012088F8E2004046FEF764
:10331800CFFFCFE7B8F8000040F0020106297FF49C
:103328005AAF4046FFF7F2FBC4E70000F0B503AF21
:103338002DE9000B84B0D7E902690D4698464FF095
:10334800FF330090B1B203EB11210E295AD8DFE800
:1033580001F0082110595959595959595959595968
:103368002D0069464046FFF728FB04B0BDE8000B76
:10337800F0BDF3B2032B30D804210246DFE803F096
:1033880002221F25404604B0BDE8000BBDE8F0400E
:10339800FFF764BB684601A901904046CDE9025297
:1033A800FFF798FA04B0BDE8000BF0BD4046294687
:1033B80004B0BDE8000BBDE8F040FFF79BB900F191
:1033C80008020C2113682BB91CE000F1100214212B
:1033D8001368BBB1415818460AE0D40094B1F5E827
:1033E80002014A464B6931469847083C0028F5D007
:1033F800CDE9010101A94046FFF71AFA04B0BDE87A
:10340800000BF0BDB8F8000040F002000628ACD16F
:10341800D8F80C000921A8F800100068BFF35F8FE6
:10342800B0B198F81210012203F0F2F8D8F8180099
:103438000068BFF35F8F00281FBF98F81E10012295
:1034480004B0BDE8000B1CBFBDE8F04003F0E0B8D5
:1034580040F2D43040F25842C2F22000C2F22002B8
:10346800222104F03DF80000F0B503AF2DE9000F6C
:103478008BB0D0F8DC400646A7F12E0088461546EA
:10348800214603F076F996F8E20037F82E1C032857
:1034980013D100294FF0000018BF032903D10BB046
:1034A800BDE8000FF0BD96F8E300042800F0F380B3
:1034B800042286F8E20086F8E320DFE801F0031230
:1034C8002F08030000200BB0BDE8000FF0BD03215A
:1034D80086F8E30086F8E21000200BB0BDE8000F84
:1034E800F0BD204602F072FE00204FF48061002DEE
:1034F80086F8E40086F8E000A6F8E2103080E1D013
:1035080008EBC504A8F1080555F8080F696889692A
:10351800884705F10800A042F6D1D3E737F82C0C0C
:1035280037F82A1C37F8282C0390084340EA020988
:10353800059104925FEAC9703DD00598C0071CBF89
:103548003046FFF771F80498C0070AD10398C007FE
:1035580011D1042007F81D0C17F81D0C042813D1ED
:1035680027E0A7F126003146FEF757FF17F81D0C94
:10357800042809D11DE0A7F126003146FEF7BEFE5A
:1035880017F81D0C042814D017F81F0C002873D046
:1035980080280ED1A7F12603304641462A46FFF778
:1035A8003BFD29F00109B9F1000FCDE9018507D1EB
:1035B8004DE029F00109B9F1000FCDE9018546D0A8
:1035C8000299002953D001984FF0020B012600EB15
:1035D800C108A0F1080504982C461BEA000F0AD080
:1035E80054F8080F61688A6A3146904704F1080068
:1035F8004045F5D10EE003981BEA000F0AD02C468F
:1036080054F8080F6168CA6A3146904704F1080007
:103618004045F5D105981BEA000F0DD066F07F04F0
:10362800AA465AF8080FDAF804100A6B21469047A0
:103638000AF108004045F4D129EA0B095FEA09407C
:1036480005D0701C0F2E4FEA4B0B0646C3D30299C8
:1036580069B1019800EBC104A0F1080555F8080FFD
:103668006968C969884705F10800A042F6D10120B8
:103678000BB0BDE8000FF0BDA7F126033046414668
:103688002A46FFF78BFD29F00109B9F1000FCDE9B2
:10369800018595D1DBE740F2782040F2F422C2F2AE
:1036A8002000C2F220021C2103F093FEF0B503AF04
:1036B8002DE9000F85B004468868002840F0848012
:1036C80092F821B04FF0FF3001F10C06886000201D
:1036D80091468846CDE9000B029030460021012230
:1036E800002302F0C7FC8A46D8F80810C00701F189
:1036F8000101C8F808106DD1002965D14FF0FF30DD
:103708008021C8F808000020CDE9000B01220290B2
:103718003046802302F0AEFCD8F80820C00702F13A
:103728000102C8F8082069D1D8F80000002879D12A
:103738004FF0FF30002A0391C8F8000078D1C8F88C
:103748000800304602F011FDD8F808000130C8F82A
:10375800080073D34FF0FF308021C8F8080004F147
:103768002400BFF35F8FC8F84460BFF35F8F04F095
:10377800C5FDC4F8DC6004F1B400B9E86E006EC0A1
:1037880099E86E006EC000200399A17708F1440102
:10379800A161E160042184F8E200C4E92B00C4F8C7
:1037A800A400A4F81F00A4F81CB0A4F8130084F81F
:1037B80012A0A4F810B02080A4F8E310A4F8E00048
:1037C80005B0BDE8000FF0BD40F23820C2F220007D
:1037D80003F0C1FD40F2C43040F20433C2F22000CD
:1037E800A7F11E02009040F21430C2F22000C2F28B
:1037F8002003202107F81EAC03F0A4FE40F2B430E9
:1038080040F20433C2F22000A7F11D02009040F2FA
:10381800143007F81D1CC2F22000C2F22003202138
:1038280003F090FE40F26820C2F2200003F093FDFE
:1038380040F25820C2F2200003F08DFD40F24820EB
:10384800C2F2200003F087FD007840F234320B46C4
:1038580040F2F841C2F22001C2F2200251F82010D1
:1038680052F82020184604F0DCB970470020704751
:103878007047082070477047F0B503AF2DE9000F77
:10388800ABB08A46044601F1340038310AF15402DB
:1038980000F065FEDAF82801016841F001010160D5
:1038A800DAF82811086820F0020008600020C1F842
:1038B8000801C1F81801C1F828011491C1F83801AC
:1038C800DAF8C0B0DBF8000020F00100CBF8000007
:1038D800DBF8000040F40040CBF80000DBF8000003
:1038E80000040CD5DBF80000000444BFDBF800003E
:1038F8005FEA004003D5DBF800000004EED43F2067
:10390800CBF80800DBF8000020F00100CBF800003D
:10391800DAF8C450286820F001002860286840F4CC
:10392800004028602868000409D52868000444BFBE
:1039380028685FEA004002D528680004F2D43F20D6
:1039480040F26341A860286820F001002860DAF896
:103958000060DAF85C011390B06C40F00100B064CC
:10396800706C08437064706C012161F383007064AB
:10397800706C20F080007064B06C40F02000B0647F
:10398800706C40F440407064706C40F44470706433
:10399800B06C40F08000B064B06D000709D0B06D25
:1039A80000071CBFB06D5FEA007002D0B06D000761
:1039B800F2D1B06C40F2634140F02000B064706C0A
:1039C80020F440407064706C20F4447000F58870F6
:1039D8007064DAF80480D8F8480040F00100C8F8AC
:1039E8004800D8F844000843C8F84400D8F8440010
:1039F800012161F38300C8F84400D8F8440020F09E
:103A08008000C8F84400D8F8480040F02000C8F802
:103A18004800D8F8440040F44040C8F84400D8F8BA
:103A2800440040F44470C8F84400D8F8480040F016
:103A38008000C8F84800D8F8580000070CD0D8F81B
:103A4800580000071CBFD8F858005FEA007003D080
:103A5800D8F858000007EED1D8F8480002220F2302
:103A680040F02000C8F84800D8F8440020F440404E
:103A7800C8F84400D8F8440020F4447000F5887071
:103A8800C8F84400DAF87C1115A801F049F8DAF80A
:103A9800681127A84FF4805201F00AF8DAF89C0060
:103AA8001290DAF8A4001190DAF8A8000D90DAF86C
:103AB800AC000C90DAF884010B90DAF890010A90C7
:103AC800DAF89801DAE91712069004F5907001F017
:103AD80089F8DAF83091DAF888E009F590706067CB
:103AE80009F1C0002067DAE90D0109F16003DAF88D
:103AF8001421CDE90F100F21DAF854000E90DAF8EE
:103B080080000990DAF884000190DAF8E000059066
:103B1800DAF8E8000490DAF8FC000390DAE940C02B
:103B28000890DAF808010790DAF80C010090DAF842
:103B38001C0102904FF47040A9F88C01C4E919994E
:103B4800A9F88E114FF00F09E366DAF8343103F55E
:103B58009071C4F8881003F1C001C4F88410A3F868
:103B68008C0103F16001C4E91E33A3F88E91C4F8F7
:103B78008010DAF8381101F59073C4F89C3001F11F
:103B8800C003C4F89830A1F88C01C4E92311A1F846
:103B98008E916031C4F89410DAF83C1101F59073F5
:103BA800C4F8B03001F1C003C4F8AC30A1F88C01FE
:103BB80001F16000C4F8A800C4E92811A1F88E91A9
:103BC8001399C4E904B501F134005031C4E93068EF
:103BD800C4E9C81015A9069820630A98E0620B98F2
:103BE800A0620C9860620D9820621498C4F8BCE03A
:103BF800C4F860C0C4E90000C4E902001298A061DA
:103C08001198E0610198C4F8B8000998C4F8B400A4
:103C180005982064049860640398C4E91202482255
:103C280000982065089860650798A0650298E06587
:103C38000E98E0630F98A0631098606304F1C800C1
:103C480004F054FC27AB04F5887C0FCB8CE80F00FC
:103C58002BB0BDE8000FF0BD007840F234320B46BF
:103C680040F26071C2F22001C2F2200251F8201025
:103C780052F82020184603F0D4BFB0B502AF82B086
:103C88000C46017B054600200090204601220123B6
:103C980002F090FFC0B2082841D140F216622046D7
:103CA800C2F220022421072302F029FEC0B208280C
:103CB80035D1697B0020009020460122032302F0C1
:103CC80079FFC0B208282AD140F21D622046C2F20C
:103CD80020022421052302F012FEC0B208281ED1BA
:103CE80040F222622046C2F220022421072302F079
:103CF80006FEC0B2082812D120462946FFF723F94C
:103D0800C0B208280BD140F229622046C2F2200234
:103D18002521032302B0BDE8B04002F0F0BD02B097
:103D2800B0BDF0B503AF2DE90007804603F0A6F952
:103D380002E061685046884703F0B8F9BFF35F8F27
:103D48000546D8F800609EB3D6F8089003F07EF9CF
:103D5800B168401A0021B0F1FF3FC8BF0121002817
:103D6800317317D43069C8F80000D6E90010096823
:103D780088470446307B05F001008A4603F0A1F924
:103D8800002CD6D103F062F9A0EB0900B0F1FF3F97
:103D9800D2DC0AE005F0010003F093F903F056F9CC
:103DA800A0EB0900B0F1FF3FC6DCBDE80007F0BD9D
:103DB8002846BDE80007BDE8F04003F082B980B5A9
:103DC8006F4688B000F10808D0E9009598E85001DE
:103DD80002950AE000203070D9E90001012201F0C3
:103DE8001F0102FA01F1C0F8881040F22C7003A9F3
:103DF800C2F220000122CDE903402846FFF734FB38
:103E080068B195F8E2000228E4D13078002804BFB0
:103E1800D5F8DC0002F0FEF80120307002E03078BE
:103E2800C007D9D0D9E90001012201F01F0102FA27
:103E380001F1C0F88410D8E9010101F01F01D0F8A0
:103E480008A002FA01FB03F001F91BEA0A0198F83D
:103E580014200B4618BF012393420AD0D8F80C202F
:103E6800012A0AD1D8F81020801AB0F1FF3F0DDCE2
:103E7800A1E00020C8F80C003AE00122C8E90320BC
:103E88000246801AB0F1FF3F40F3958005282FD9EC
:103E9800002598F81500B1FA81F398F81620C8F8AB
:103EA8000C50002918BF012107F8060C7F2088F85C
:103EB800141007F8080C580907F8090CA7F10900AD
:103EC80007F8072C07F8055C00F026F9079020682A
:103ED8000168BFF35F8F002973D0A2790420009096
:103EE80003A807AB02F0A2F99DF80C00012873D0D3
:103EF800D8E90701B34601F01F01A24686680120F0
:103F080000FA01F503F0A2F815EA060198F82C204A
:103F18000B4618BF012353400BD0D8F824205E4627
:103F2800012A0DD1D8F82820029D801A54460FD5B1
:103F380041E000205446C8F824005E46029D54E73C
:103F48000122C8E909200246029D801A544632D44B
:103F58000628FFF44AAF002598F82D00B1FA81F33E
:103F680098F82E20C8F82450002918BF012107F816
:103F7800060C7F2088F82C1007F8080C580907F859
:103F8800090CA7F1090007F8072C07F8055C00F0F1
:103F9800C3F8079020680168BFF35F8F89B1A279E1
:103FA8000420009003A807AB02F040F99DF80C002C
:103FB80090B9029D19E740F2C860C2F2200003F0F0
:103FC800FEF940F2D43040F25842C2F22000C2F268
:103FD8002002222103F084FA9DF80D0040F22C63A0
:103FE80007F8090C40F21070C2F22000A7F109028C
:103FF800009040F2D860C2F22000C2F220032B21C8
:1040080003F0A0FAF0B503AF2DE9000F8FB0824698
:1040180089460846012193464FF0010801F09EFEAB
:104028000420CBF800808BF809000020D84648F817
:10403800040F0BF11000B9E85C0001465CC1B9E857
:104048007C007CC199E87C007CC100244FF0FF31E2
:104058004BF8484F4025002202944BF83C1C0221A3
:104068000BF8401CCDE90015802102F003F85BF83D
:104078003C2CC00702F101024BF83C2C2FD14FF425
:10408800007004AAAAF8070041F2C060C0F2E45028
:104098008AF806100A9040F22070C2F220004146C9
:1040A80006903220CDF832004FF00060CDF82E0097
:1040B8001020ADF82C00092007900AF11000AAF88A
:1040C8000450CAF800B008940494FFF7EFFA4FF4CC
:1040D8008070AAF80C000FB0BDE8000FF0BD40F2E8
:1040E800A86040F22C63C2F22000A7F11D020090E4
:1040F80040F23C6007F81D1CC2F22000C2F2200307
:104108000F2103F01FFA014640F28070C2F220002E
:104118007047004770470000C278017890F804C0E3
:10412800B0F8010040EA0240D0B502AFDFE801F084
:10413800032C18200B52802141EA104300F4FE4161
:104148004FF0080E27E00122D02160F30F2241EA48
:1041580010234FF00D0ED0B2190618BB034630E0FD
:10416800A02141EA104300F4FE414FF00A0E12E08C
:104178000122C02160F30F2241EA10234FF00C0EF8
:10418800D0B2190670B9E9E7902141EA104300F46A
:10419800FE414FF0090E41EA0040821CD0B21906D8
:1041A8000028DBD04FF600740228C0F2FF0406BFD7
:1041B8004FF07F4000EA02200020144044EA0363E5
:1041C8001B0A4EEA0C0242EA11410843D9B240EAFE
:1041D8000140D0BDE02141EA10430002821C4FF0AB
:1041E8000E0ED0B219060028DCD1B7E7F0B503AF40
:1041F8002DE9000F81B048F250014FF0010CC2F2D6
:104208000001BFF35F8FD1E84F2FC1E843CF002BE8
:10421800F9D1BFF35F8F002A01BF48F20001C4F251
:104228000D010022C4F22F0201BF02F5542C02F541
:10423800502E02F54C28A1F5004401BFA1F5003528
:1042480001F5F61601F5F413C0E9683601BFC0E9B7
:104258006A54C0E96C8EC0E96EC101F5005E01BF09
:1042680001F5805640F2040CC4F22E0C01F502143C
:1042780001BF0CF5FE7501F5004300F5C07888E82C
:10428800380001BF00F5C67383E81210C0E9666EF6
:10429800A1F5404C01BF01F5881E01F5861801F50E
:1042A800841401F5821301BF01F5003602F51025CB
:1042B800C0E9585600F5B47501BF85E81A41C0F841
:1042C8007CC1A1F5804C02F51C2E01BF02F518280F
:1042D80002F51424A1F5E03301F5282601BF01F504
:1042E800EE15C0E9505600F5A47585E8184101BFE0
:1042F800C0E9562C02F5782802F5742902F57024D5
:1043080001BF02F56C234CF2000CC4F2070C0CF54B
:10431800004601BF01F5E03E01F58E15C0E9485E93
:10432800C0E94A6101BF00F5987585E81802C0F830
:104338003C8101F5482801BF01F5442901F5402ACF
:1043480001F53C2B01F5382301BF01F5342401F5B3
:10435800302501F52C26C0E9406501BFC0E942437C
:10436800C0E944BAC0E9469802F5302801BF02F511
:104378002C2902F5282A02F5242B02F5861301BF01
:1043880002F5841402F5821502F58016C0E9386535
:1043980001BFC0E93A43C0E93CBAC0E93E9801F51B
:1043A800F01801BF01F59219A1F5503AA1F5403B6B
:1043B800A1F5303301BF01F5901401F58C1501F515
:1043C8008A16C0E9306501BFC0E93243C0E934BA92
:1043D800C0E9369844F2000B01BFC4F2002B0BF57C
:1043E80000490BF5804A4FF0844801BF01F56C265F
:1043F80001F5682401F56425A1F5C03301BFC0E9C2
:10440800283500F1A80383E85009C0E92EA901BFA7
:1044180001F5602801F5E61901F5E81AA1F520363D
:1044280001BF0BF5E03301F5582401F55425C0E927
:10443800205401BF00F1880484E84804C0E9259E9F
:10444800C0F89C8001BFA1F5103E01F5FE1801F5EA
:10445800001902F5642A01BF02F5602302F55C2603
:1044680002F5582501F5A03401BF00F1600B8BE877
:104478007000C0E91B3AC0E91D9801BFC0F87CE094
:1044880001F5803E02F540480CF5804901BF01F571
:10449800804A01F5F21344F20806C4F2090601BF86
:1044A80006F1100506F10804C0E91064C0E91253CA
:1044B80001BFC0E914A9C0E9168E0CF5C03E01F58C
:1044C800103801BF01F5801901F57C2401F5782326
:1044D80002F57C2601BF02F54825C0E9085600F11F
:1044E800280585E8180201BFC0E90D81C0F83CE045
:1044F80002F5442E02F50C2601BF01F5D21501F58F
:10450800242402F54022A1F5803301BFA1F5A03192
:10451800C0E90013C0E9022C103001BF80E87040E8
:1045280001B0BDE8000FF0BD40F2907040F62402E3
:10453800C2F22000C2F22002352102F0D1FF48F277
:1045480048110068C4F21F0105230A6863F30302D7
:104558000A60416841F00801416003217047F0B5E5
:1045680003AF4DF804BD0E4600211546044600F081
:104578006BFA284640F2E24100F06DFA304600F04E
:104588002EFA40F294352146C2F220050022284630
:10459800366800F015FBA81C2146002200F010FB2D
:1045A800281D2146002200F00BFBA81D21460022F1
:1045B80000F006FB05F108002146002200F000FB90
:1045C80005F10A002146002200F0FAFA05F10C0074
:1045D8002146002200F0F4FA05F10E0021460022DF
:1045E80000F0EEFA05F110002146002200F0E8FA8A
:1045F80005F112002146002200F0E2FA05F114004C
:104608002146002200F0DCFA05F1160021460022BE
:1046180000F0D6FA05F118002146002200F0D0FA81
:1046280005F11A002146002200F0CAFA05F11C0023
:104638002146002200F0C4FA05F11E00214600229E
:1046480000F0BEFA20684169890107D5416921F067
:1046580000714161204600F0E8F9206841690122B3
:1046680021F0605141612068816962F30D318161F7
:10467800204600F0DAF92068416941F00071416193
:10468800204600F0D2F94FF480503060642030604A
:104698004FF4005070603068002809D43068002852
:1046A8005CBF3068002803D43068B0F1FF3FF2DC0B
:1046B80020680122016962F302010161204600F0CD
:1046C800B4F92068416921F4E0514161204600F0C5
:1046D800ACF92068816941F4402181612068416911
:1046E80021F000714161204600F09FF9206840F6F2
:1046F8004005C2F220050022416941F44071416140
:104708002846214600F05CFAA81C2146002200F049
:1047180057FA281D2146002200F052FAA81D21460A
:10472800002200F04DFA2068022640F650050022CB
:10473800C2F22005816B66F3D84181632068816BE2
:1047480041F4802181632846214600F039FAA81CEB
:104758002146002200F034FA281D2146002200F0EC
:104768002FFAA81D2146002200F02AFA206840F6F8
:1047780034050322C2F22005816966F305118161BF
:104788002068816962F39C61816128462146002284
:1047980000F016FAA81C2146002200F011FA281D84
:1047A8002146002200F00CFAA81D2146002200F044
:1047B80007FA05F108002146002200F001FA2068F6
:1047C800172240F2AC45C2F22005C16962F3050127
:1047D800C16120680022C16941F04001C1612846D9
:1047E800214600F0EDF9A81C2146002200F0E8F966
:1047F800281D2146002200F0E3F9A81D21460022C9
:1048080000F0DEF905F108002146002200F0D8F991
:1048180005F10A002146002200F0D2F905F10C004A
:104828002146002200F0CCF905F10E0021460022B5
:1048380000F0C6F9206840F65805C2F220050322A8
:10484800416A41F0400141622068416A66F305010E
:1048580041622846214600F0B3F9A81C21460322EC
:1048680000F0AEF9281D2146032200F0A9F9A81D81
:104878002146032200F0A4F905F10800214603228D
:1048880000F09EF905F10A002146032200F098F98C
:1048980005F10C002146032200F092F905F10E0003
:1048A8002146032200F08CF905F11000214603226D
:1048B80000F086F905F112002146032200F080F984
:1048C80005F114002146032200F07AF905F11600DB
:1048D8002146032200F074F905F11800214603224D
:1048E80000F06EF905F11A002146032200F068F97C
:1048F80005F11C002146032200F062F905F11E00B3
:104908002146032200F05CF905F12000214603222C
:1049180000F056F905F122002146032200F050F973
:1049280005F124002146032200F04AF905F126008A
:104938002146032200F044F905F12800214603220C
:1049480000F03EF905F12A002146032200F038F96B
:1049580005F12C002146032200F032F905F12E0062
:104968002146032200F02CF905F1300021460322EC
:1049780000F026F905F132002146032200F020F963
:1049880005F134002146032200F01AF905F136003A
:104998002146032200F014F905F1380021460322CC
:1049A80000F00EF905F13A002146032200F008F95B
:1049B80005F13C002146032200F002F905F13E0012
:1049C8002146032200F0FCF805F1400021460322AD
:1049D8005DF804BBBDE8F04000F0F2B8FEE780B532
:1049E8006F4600684FF400514FF480524FF0400C6E
:1049F8004FF4803E00E0416103699B04FBD50369E5
:104A0800DB0401D44261F7E70369B3F1FF3FF3DC4C
:104A18000369DB0306D403695B0648BF80BDC0F8A1
:104A280014C0E9E7C0F818E0E6E7006803E0816C25
:104A3800002908BF7047816C29B1816C00291CBF0F
:104A4800816C0029F3D170470068426D22F003029F
:104A580011434165704740F22762914238BF0A46C8
:104A6800B2F5487F98BF4FF44872A2F5487144F2F6
:104A7800AF7300688AB25A43C368A1EB124189B286
:104A8800490801EB124123F01F0242EA1111C160EB
:104A980004E00168B1F1FF3FD8BF70470168002901
:104AA80005D4016800295CBF01680029F1D5704769
:104AB800F0B503AF2DE9000B44F2E043C4F21F0345
:104AC8001B68C3F30B2E4FEA135CE6451FBF012496
:104AD800C1F88841DBB24FF47A781FBF03FB08F9AD
:104AE800ACEB0E04D1F8906149F658651FBFCFF6BC
:104AF800FF7513FB085393FBF4F3C2EA06021FBFCA
:104B0800C1F8902180E80A40C0F80C90BDE8000B7D
:104B180018BFF0BD40F60810C2F2200003F047FBB2
:104B2800B0B502AF054608680C4640F4803008600E
:104B3800086840F040000860222063F31340486092
:104B480040F26850C0F20C10086240F29510C0F2B2
:104B5800B2004862DC20C0F27A0088627D20C0F290
:104B68005800C8624B20C0F2400008632F20C0F2F2
:104B78002E004863886346F62010C86040F6A310EC
:104B880088604FF4C840C8614FF4C860886140F637
:104B9800C410C0F6804008613F204861086820F0D2
:104BA800030010430860086820F480300860C86F6C
:104BB8004021281D03F0A2FB10202C606864B0BDC2
:104BC80003784078096801EB83014000C0B20323F1
:104BD800D1F868C0834002FA00F02CEA03031843B6
:104BE80088667047F0B503AF2DE9000FADF5057D78
:104BF8000DF1040B80464FF40071584603F07EFB1C
:104C080044F2B8290DF5017AC2F2000900244E4693
:104C18000025D9E96001CDE9830150468295819646
:104C280002F0EEF981AB0C3601350FCB4BF80400DE
:104C38000BEB040010340430B4F5007F0EC0E8D14B
:104C480001A940464FF4007203F050FC0DF5057DB4
:104C5800BDE8000FF0BDF0B503AF4DF8048DD0F8F6
:104C680000C0BCF1020F04D1002210465DF8048B8D
:104C7800F0BDC168012903D1D0E90454AC4267D121
:104C88005FEACC7156D0D0E901ECE64552D24FF03C
:104C98000208012501E0F4454CD0C26A714641F092
:104CA8008003CCB24E0046EAD41144EA0323546888
:104CB8000EF1010E0383CBB29C42C0F804E0C0E9B8
:104CC8000355C0F8148016D9946901F00F012468BF
:104CD800BFF35F8FA4B224FA01F1C9070BD0516961
:104CE800994240F28B80116903EB830201EB820247
:104CF800117C4906B9D1C26A711CC0F81080CBB2C8
:104D080054689C42C7D9946901F00F012468BFF325
:104D18005F8FA4B224FA01F1C907BCD05169994246
:104D28006CD9116903EB830201EB8202117C4906FD
:104D3800B1D09AE7C1690022C260012903D1D0E944
:104D4800084EA6452DD1C26110465DF8048BF0BD12
:104D580000F1180E01E0AC4292D0294601350561F8
:104D68001EF80110C26A4B0043EAD1115668CBB253
:104D78009E42F0D9966901F00F013668BFF35F8F44
:104D8800B6B226FA01F1C907E5D05169994235D979
:104D9800116903EB830201EB8202117C4906DAD028
:104DA80063E700F1280C01E0A645CCD02146013488
:104DB80004621CF80110C66A4B0043EAD1117568F9
:104DC800CBB29D42F0D9B56901F00F012D68BFF350
:104DD8005F8FADB225FA01F1C907E5D07169994233
:104DE8000CD9316903EB830301EB83010B7C5B0670
:104DF800DAD00A4610465DF8048BF0BD40F6303232
:104E08001846C2F2200202F07FFB80B56F46D0E957
:104E1800072E4FF0004C4FF08043CEF834C0CEF848
:104E280038C0CEF838300023CEF800300223C2F85C
:104E38004031D2F840319B070CD5D2F840319B075E
:104E480044BFD2F840315FEA837303D5D2F84031CA
:104E58009B07EED44FF0000C0A23C2F840C100298A
:104E6800C2F8A831D2F8843123F0807308BF03F167
:104E78008073C2F88431D2F844110068C2F8441132
:104E8800C2F848C1C2F8580180BDB0B502AF9AB0A7
:104E98000446C069D0F8B811C0F8B811D0F8BC11F0
:104EA800C0F8BC11D0F87811C0F878110021C0F80A
:104EB8007C11D0F8B01159B1D0F8B01100291CBF3D
:104EC800D0F8B011002903D0D0F8B0110029F0D1E2
:104ED8004FF0FF31C0F8B411D0F8B41159B1D0F87F
:104EE800B41100291CBFD0F8B411002903D0D0F8A0
:104EF800B4110029F0D100200821CDE906010121D3
:104F08000C9008900390019001A800F110051094EE
:104F180005912846FFF79FFEF8B1017C11F07F004C
:104F2800F7D0082811901AD20138E26949B2B1F1D4
:104F3800FF3FC0B26FF40C0102EB8000D0F8C4212F
:104F4800C8BF6FF08C0101EA02014FF40022C8BF0C
:104F580008221143C0F8C411DBE71AB0B0BD002025
:104F680040F6B02116900220139040F64420C2F279
:104F78002000C2F2200112900120159018A8149068
:104F880045F64B70C0F20000199011A8189012A8AD
:104F980002F09BFA02464368C8B2490041EAD011C0
:104FA800C8B2834217D9936901F00F011B68BFF398
:104FB8005F8F9BB223FA01F1C9070CD05169814276
:104FC80084BF0120704780B56F4640F62032C2F298
:104FD800200202F099FA00207047F0B503AF2DE9DE
:104FE800000F83B08046486800281FBF88690068A2
:104FF800BFF35F8F5FEAC07005D140F67810C2F248
:10500800200002F0DCF94869002800F01D8151F801
:105018001C4F9A460125BAF1080F51F80C0CD4F828
:10502800AC3190F9106006F01F0C05FA0CF56ED340
:105038002B406CD0D0F808C0C4F8AC51D4F840610B
:1050480046F40056C4F84061DCE90A56D4F8403109
:105058009B0425D4D4F8403143F40053C4F84031BC
:10506800DCE90A56D4F840319B045FBFD4F84031DC
:1050780043F40053C4F84031DCE90A565CBFD4F865
:1050880040315FEA83430BD4D4F8403143F40053F2
:10509800C4F84031DCE90A56D4F840319B04CDD538
:1050A800D4F8403123F40053C4F8403190F910C0CB
:1050B800D4F8B8315660BCF1000F15600CF01F022F
:1050C8004FF0010648BF1B0C964033401B0614D115
:1050D8004FF48033BCF1FF3FC8BF01234FF47F0674
:1050E80003FA02F2C8BFFF263240C4F8782182686A
:1050F8001268C2F30A4200F02CFD0820C8F8040028
:10510800002088F8000003B0BDE8000FF0BDC368B8
:105118005B6813F0680F01D0072008E0D4F8B831B5
:10512800002E48BF1B0C2B401B0609D0002088F816
:105138000100012088F8000003B0BDE8000FF0BDB1
:10514800B6F1FF3F4FF480364FF47F03CDF8088067
:10515800C8BF0126C8BFFF2306FA0CF63340C4F8BF
:10516800BC314FF4803E90F910304FF47F05B3F115
:10517800FF3F03F01F03C4BFFF254FF0010E0EFAD7
:1051880003F32B40C4F87831C668D0E9013EDEF855
:1051980000507468F669C5F30A45554538BFAA46F4
:1051A800C4F30E45761BB24528BFB246534538BFF7
:1051B8009A46BAF1000F36D0D0F800B00AF00305CD
:1051C800BAF1040F01D200261EE040F2FC730AEA8D
:1051D800030902F10108002601950BEB06041BF8F0
:1051E800065008EB060394F801C008F806C0043618
:1051F800B14594F802C003F8015C83F801C0E57872
:105208009D70EAD1019DB3446DB19BF80030012D2A
:10521800935508D032449BF80130022D53701CBFBF
:105228009BF802309370DEF80020C2F30A4200F0C7
:1052380090FCDDF808800020C8F804A088F8000079
:1052480003B0BDE8000FF0BD40F630320020C2F2D6
:105258002002002102F058F9F0B503AF2DE9000F44
:1052680085B04E68022EC0F010818E693668BFF393
:105278005F8FB60740F109814E69012E40F20B811C
:105288000D692E6A766816F0680F01D0072115E0BF
:105298008A4695F824605AF81C8F06F01F0E4FFABC
:1052A80086FC0126D8F8B841BCF1000F48BF240C91
:1052B80006FA0EF63440240607D000214170012179
:1052C800017005B0BDE8000FF0BD4FF480344FF415
:1052D8007F06BCF1FF3FC8BF0124C8BFFF2604FA00
:1052E8000EF42640C8F8786105F11409D5E9066579
:1052F8002D68C5F30A459D4238BF2B469E4238BFEC
:105308003346CDE9030353B1D9F800B003F00306DF
:10531800042BCDF8089007D20020DE4623E00C4687
:105328004846514600225DE040F2FC7003EA000E58
:1053380002F101090020019609EB000519F8006047
:1053480015F8014C95F801C0AD780BF800400BEB4F
:10535800000404308645667084F802C0E570EBD11D
:10536800019E0BEB000E0C466EB1115C012E8EF8FF
:10537800001008D01044022E41788EF801101CBF8E
:1053880080788EF80200581E012101EB501606F0B5
:10539800030901F09FFE049A4EF670702BF01F016E
:1053A800CEF20000612A0FD326F0030201F1200398
:1053B8000160036001F14003036001F16003043AF6
:1053C80001F180010360F1D1B9F1000F1CBF016048
:1053D800B9F1010F50D101F07DFE01F07EFE029877
:1053E8005146049A00F0B5FBA0690068BFF35F8FCF
:1053F800C00758D060690028DDE9030259D0216947
:1054080001240B7CD8F8B8515EB203F01F03002EBC
:1054180048BF2D0C9C4025402D0626D14FF48032E4
:10542800B6F1FF3FC8BF01224FF47F0502FA03F22D
:10543800C8BFFF252A40C8F8BC2191F910204FF4B5
:1054480080304FF47F06B2F1FF3F02F01F02C4BF65
:10545800FF260120904000223040C8F87801084615
:10546800514600F076FBDDE903020021426001703D
:1054780005B0BDE8000FF0BD01F120020260B9F1EE
:10548800020F1CBF40310160A5E740F68810C2F248
:10549800200001F094FF40F630320120C2F22002D1
:1054A800314602F031F840F69810C2F2200001F0BF
:1054B80086FF40F630320020C2F22002002102F0BE
:1054C80023F8F0B503AF2DE9000F83B08446387A8E
:1054D8004D68460046EAD016F0B2854240F2C480D4
:1054E8008D6906F00F062D68BFF35F8FADB225FA00
:1054F80006F6F60700F0B880D1F814E0864540F2C9
:10550800B9800E6900EB800006EB8000C6687668FB
:1055180016F0680F01D0072012E0057C8E4651F87E
:105528001C9F05F01F0A6CB20125D9F8B86105FA6D
:105538000AF5002C48BF360C35402D0609D000204E
:105548008CF8010001208CF8000003B0BDE8000FC2
:10555800F0BDBEF82C6004F00F05EE40F607EED063
:105568004FF480354FF47F06CDF808C0B4F1FF3F03
:10557800C8BF0125C8BFFF2605FA0AF52E40C9F89D
:10558800BC614FF4803C90F910604FF47F04B6F191
:10559800FF3F06F01F06C4BFFF244FF0010C0CFAB2
:1055A80006F62640C9F87861C568D0E9016EDEF8CC
:1055B8000040D5F804C0ED69C4F30A449C4238BFE2
:1055C8002346CCF30E442D1BAB4228BF2B469E42EC
:1055D80038BF3346B3B3D0F800A003F00304042B5C
:1055E80001D200261FE0019440F2FC7403EA04098A
:1055F80002F1010B00260AEB06041AF806500BEB21
:10560800060C94F801800BF806800436B14594F82E
:1056180002800CF8015C8CF80180E4788CF8024078
:10562800E9D1019CB2446CB19AF80050012C95550F
:1056380008D032449AF80150022C55701CBF9AF8D1
:1056480002609670DEF800201C46C2F30A4200F0A1
:1056580080FADDF808C00020CCF804408CF800007F
:1056680003B0BDE8000FF0BD40F6A810C2F220005C
:1056780001F0A5FE40F630327146C2F2200201F078
:1056880043FFF0B503AF2DE9000F81B03E7A4D68B6
:10569800740044EAD616F4B2A54240F2CD808D6972
:1056A80006F00F062D68BFF35F8FADB225FA06F638
:1056B800F60700F0C180D1F814C0A44540F2C280BA
:1056C8000E6904EB840506EB850BDBF80C60766845
:1056D80016F0680F01D0072112E09BF8105051F81E
:1056E8001CCF05F01F0E6CB20125DCF8B86105FA75
:1056F8000EF5002C48BF360C35402D0607D000218A
:1057080041700121017001B0BDE8000FF0BD0090AB
:105718004FF48030B4F1FF3FC8BF01204FF47F043D
:1057280000FA0EF0C8BFFF242040CCF87801DBE96E
:1057380001063668C6F30A469E4238BF3346984289
:1057480038BF0346002B62D0DBF8008003F0030C5F
:10575800042B02D2002640461BE040F2FC7003EA0C
:10576800000E02F10109002609EB060519F806A04A
:1057780015F8014C6878AD7808F8064008EB06047F
:105788000436B64584F801A0A070E570ECD108EBAA
:1057980006008946BCF1000F0CD0915DBCF1010FE9
:1057A800017007D09119BCF1020F4A7842701CBFF2
:1057B80089788170581E01219A4601EB501404F033
:1057C800030601F087FC4EF6707028F01F01CEF238
:1057D8000000BAF1610F0FD324F0030201F1200396
:1057E8000160036001F14003036001F16003043AC2
:1057F80001F180010360F1D1002E1CBF0160012E70
:1058080012D101F067FC01F068FC5346494658463E
:105818001A461C4600F09DF900980021446001706A
:1058280001B0BDE8000FF0BD01F120020260022EB8
:105838001CBF40310160E4E740F6B810C2F2200016
:1058480001F0BDFD40F630322046C2F2200261462A
:1058580001F05AFEB0B502AF8AB00346D0F804C0D2
:10586800D0B2540044EAD01E5FFA8EF0844556D96F
:105878009C690EF00F0C2468BFF35F8FA4B224FA62
:105888000CF4E4074BD0D3F814C084454DD91C69F7
:1058980000EB800004EB800090F810C00CF07F044F
:1058A8000194082C48D24FFA8CF503F11C0C05F032
:1058B8003F03002DDCF800E00EEB8303D3F8C04172
:1058C80008D424F001040C4452B2002AC3F8C041A1
:1058D80009D518E024F4803461F3104452B2002A48
:1058E800C3F8C0410FD471B9DEF8B811012390F99B
:1058F8001020002A02F01F0248BF090C03FA02F226
:105908001140090601D00AB0B0BD81680968C1F329
:105918000A4261460AB0BDE8B04000F01AB940F644
:10592800C810C2F2200001F04AFD40F6303261464C
:10593800C2F2200201F0E8FD002040F6B0210690F6
:105948000220039040F64420C2F22000C2F2200157
:1059580002900120059008A8049045F64B70C0F20B
:105968000000099001A8089002A801F0AEFD80B5DA
:105978006F468AB0CBB2490041EAD3114268CBB234
:105988009A4227D9826901F00F011268BFF35F8F2D
:1059980092B222FA01F1C9071CD0416999421FD974
:1059A800016903EB830201EB8201097C01F07F02AC
:1059B8000192082A1BD249B2C06901F03F020029AE
:1059C80000EB8200D0F8C00148BF000C00F00100D5
:1059D8000AB080BD40F6D810C2F2200001F0EFFCFA
:1059E80040F620321846C2F2200201F08DFD002058
:1059F80040F6B02106900220039040F64420C2F2FF
:105A08002000C2F2200102900120059008A804900D
:105A180045F64B70C0F20000099001A8089002A852
:105A280001F053FDF0B503AF2DE9000F99B08046A2
:105A38000F90684600F110044FF0000B4FF0080972
:105A48004FF0010A2046CDF82CB0CDF81CB0CDE9B6
:105A580005B9CDF810A0CDF808B0CDF800B0FFF723
:105A6800FAF808F11C050AE022F44C0242EA8141E6
:105A780001F54001C0F8C4112046FFF7ECF8C8B1A1
:105A8800027C12F07F01F7D00829109146D24E1EF1
:105A980053B22A68B3F1FF3F417CF0B202EB8000B9
:105AA800D0F8C421E0DD22F00C0242EA810141F085
:105AB800C001DFE7CDF83C80CDF82CB0CDE9069BDE
:105AC800CDE904ABCDF808B0CDF800B009E0B1F1EC
:105AD800FF3F06DD81680968C1F30A42294600F0E4
:105AE80038F82046FFF7B7F8A0B1017C11F07F0223
:105AF80049B2ECD0082A109210D2013A2B6800293A
:105B0800D2B203EB8202D2F8C421EAD412F08001A7
:105B1800E0D1E6E719B0BDE8000FF0BD002040F67F
:105B2800B02115900220129040F64420C2F22000C5
:105B3800C2F2200111900120149017A8139045F685
:105B48004B70C0F20000189010A8179011A801F02F
:105B5800BCFCF0B503AF4DF8048D82B0054688460D
:105B6800EE680121006831607168F26162F31E41DC
:105B78007160CAB1B06040F6FF71B068884300F543
:105B88008050F060F0686FF30B0000F580503061D2
:105B980030696FF30B0000F58050706170696FF326
:105BA8000B0000F5805004E00020B060F060306128
:105BB8007061B0618021706840F400407060706866
:105BC80061F307007060019601F084FA4EF6707474
:105BD80001A8CEF2000420F01C00206001F07AFA3F
:105BE80001F07BFAA8688660C16821F0FF01C160F6
:105BF800009001F06FFA684620F01C002060203009
:105C0800206001F067FA01F068FA95F910204FF466
:105C18007F01D8F800004FF48033B2F1FF3F02F063
:105C28001F02C8BFFF21C8BF012303FA02F21140B7
:105C3800C0F8B011D0F8B01159B1D0F8B01100299E
:105C48001CBFD0F8B011002903D0D0F8B01100293A
:105C5800F0D102B05DF8048BF0BDF0B503AF2DE9CB
:105C6800000B84464668C8B24D0045EAD014E0B23D
:105C7800864217D9DCF8189004F00F04D7F808808A
:105C8800012606FA04FEBFF35F8F59E8006F46EA63
:105C98000E0449E80045002DF7D116EA0E0FBFF3B0
:105CA8005F8F03D00020BDE8000BF0BDDCF80CE0EE
:105CB800864545D9DCF814E0864548D9DCF800600B
:105CC8000025C0F2FF75B3F5806F06EB801405EA76
:105CD8000345266846F000562660266888BF4FF0C0
:105CE80080656FF31A462E44266026685FEA0865C9
:105CF800DCF808E026F40049DCF810C04EB24D4646
:105D080008BF05F50045B6F1FF3FD8BF4D462560F1
:105D1800450101264EF805600EEB401600EB8000A9
:105D2800756825F0FF0575604CF820200CEB8000A5
:105D38000174011D80F8118058C1BDE8000BF0BD49
:105D480040F640327146C2F2200201F0DDFB40F617
:105D580050327146C2F2200201F0D6FBF0B503AF13
:105D68004DF804BD044690F834000D46012801D1D1
:105D7800206829E001F0B7F9064601F0A7F9206884
:105D8800F10721D1002801BF206A4FF0FF312160BF
:105D9800D0F8481101BF21F0410165F3000165F316
:105DA8008611C0F8481101BF2068013020605DF8F5
:105DB80004BB04BFBDE8F04001F08AB940F6CC301E
:105DC800C2F2200001F0C7FA002801BF206A4FF094
:105DD800FF312160D0F8481101BF21F0410165F37E
:105DE800000165F38611C0F8481101BF2068013031
:105DF80020605DF804BB08BFF0BDDFE7F0B503AF76
:105E08002DE9000782B006683168002940F0F58066
:105E180000F1040A04694FF0FF3230469AE8220480
:105E280040F8042B0A78DAB14978B4684A0042EAA3
:105E3800D112D3B29C4240F2C080F46902F00F0242
:105E48002468BFF35F8FA4B224FA02F2D20700F0ED
:105E5800B480B169994240F2D68001200521B6E0AC
:105E68002178B26841F001094FEA490343EAD111A8
:105E7800CBB29A4240F28D80F26901F00F011268AC
:105E8800BFF35F8F92B222FA01F1C90700F0818057
:105E9800B169994240F2B7802178B26841F00209AD
:105EA8004FEA490343EAD111CBB29A4271D9F26958
:105EB80001F00F011268BFF35F8F92B222FA01F16D
:105EC800C90766D0B169994240F29D802178B268CD
:105ED80041F003094FEA490343EAD111CBB29A4290
:105EE80057D9F26901F00F011268BFF35F8F92B2C0
:105EF80022FA01F1C9074CD0B169994240F2838076
:105F08002178B26841F004094FEA490343EAD11104
:105F1800CBB29A423DD9F26901F00F011268BFF382
:105F28005F8F92B222FA01F1C90732D0B169994262
:105F380069D92178B26841F005094FEA490343EA73
:105F4800D111CBB29A4224D9F26901F00F0112683B
:105F5800BFF35F8F92B222FA01F1C90719D0B16974
:105F6800994250D92178804641F006094946FFF701
:105F780011F80146404661B1207840F007094046D3
:105F88004946FFF707F80146404611B101200321B1
:105F98001DE0F16A2B88994217D3CA1AB16A8A425E
:105FA80013D3F2624C469AF8001000914946FFF765
:105FB80054FEE0B10020214609E0F26A2B889A429B
:105FC80003D3B56AD21AAA4208D201200421326842
:105FD8000132326002B0BDE80007F0BDF2620C4643
:105FE8009AF800500095FFF738FE0028E2D140F6F5
:105FF800E810C2F2200001F0E2F940F6CC30C2F21B
:10600800200001F0A8F940F620321846C2F220021A
:1060180001F07AFAB0B502AF044690F834000128CE
:1060280001D1206815E001F05EF8054601F04EF850
:106038002068E9070DD1B8B94FF0FF302060201D66
:10604800FFF7F0FC206801302060BDE8B04001F0A7
:106058003FB848B94FF0FF302060201DFFF7E2FC41
:10606800206801302060B0BD40F6CC30C2F220007C
:1060780001F071F9B0B502AF88B007F8221CA7F19A
:1060880022010791A7F11F010691A7F11E010591B1
:1060980090F83410D7E9024507F8212CA7F121021E
:1060A800012907F8203C07F81F4C27F81E5CCDE9AA
:1060B800030204D103A8FFF7A1FE08B0B0BD01F0A8
:1060C80012F8044601F002F803A8FFF797FEE2076A
:1060D80005D104460D4600F0FBFF2946204608B0CE
:1060E800B0BDF0B503AF4DF804BD044690F83400D8
:1060F8000D46012801D1206823E000F0F4FF064690
:1061080000F0E4FF2068F1071BD1002801BF206AD6
:106118004FF0FF312160690601BF01F18071C0F8BD
:1061280054112068013001BF20605DF804BBBDE850
:10613800F04000F0CDBF40F6CC30C2F2200001F0B4
:106148000AF9002801BF206A4FF0FF312160690673
:1061580001BF01F18071C0F854112068013002BFFD
:1061680020605DF804BBF0BDE5E7B0B502AF0446BA
:1061780090F83400012801D120681BE000F0B3FF3B
:10618800054600F0A3FF2068E90713D1002801BFE6
:10619800206AD0F8401141F00101C0F8401104BF55
:1061A800BDE8B04000F094BF40F6CC30C2F2200009
:1061B80001F0D1F8002801BF206AD0F8401141F061
:1061C8000101C0F8401108BFB0BDEDE7B0B502AF9E
:1061D800044690F83400012801D1206815E000F049
:1061E80082FF054600F072FF2068E9070DD1B8B9B3
:1061F8004FF0FF302060201DFEF747FE2068013079
:106208002060BDE8B04000F063BF48B94FF0FF30F0
:106218002060201DFEF739FE206801302060B0BDE7
:1062280040F6CC30C2F2200001F095F8F0B503AF8B
:106238002DE9000784B0824691F83400D7F8088029
:10624800994616460D4601282FD12868002840F0A7
:10625800DA804FF0FF3071002860F0B241EAD011C7
:10626800AA68C8B2824256D9EA6901F00F011268D9
:10627800BFF35F8F92B222FA01F1C9074BD0A96927
:10628800814240F2C680291D700600F0938002A862
:106298004A4643460096FFF7F4F99DF8080000289F
:1062A80000F092809DF8090036E000F01CFF0446DB
:1062B80000F00CFF2868E1073AD1002840F0A380DD
:1062C8004FF0FF3071002860F0B241EAD011AA689F
:1062D800C8B2824258D9EA6901F00F011268BFF3C7
:1062E8005F8F92B222FA01F1C9074DD0A9698142A4
:1062F80040F28F80291D70066BD002A84A4643469B
:106308000096FFF7BEF99DF8080000286AD09DF8AE
:10631800096001243AE005208AF801000120296873
:106328008AF80000481C286004B0BDE80007F0BDEA
:10633800002868D14FF0FF3071002860F0B241EAC0
:10634800D011AA68C8B2824226D9EA6901F00F01C1
:106358001268BFF35F8F92B222FA01F1C9071BD00E
:10636800A969814255D9291D70063FD002A84A461D
:1063780043460096FFF785F99DF8080000283ED0AF
:106388009DF80960012409E00124052628680130E8
:10639800286000F09DFE04E00124052628680130ED
:1063A8002860F0B244EA0020CAE9000804B0BDE859
:1063B8000007F0BD02A84A464346FEF74DFF9DF888
:1063C800080000287FF46EAF0398CAF80400002084
:1063D800A5E702A84A464346FEF73EFF9DF8080097
:1063E800002894D1DDF80C800024CFE702A84A46A3
:1063F8004346FEF731FF9DF808000028C0D1DDF8BC
:106408000C800024CAE740F6CC30C2F2200000F02D
:10641800A2FF40F62032C2F2200201F075F8F0B572
:1064280003AF2DE9000784B0824691F83400D7F80D
:106438000880994616460D4601282FD1286800285D
:1064480040F0DA804FF0FF3071002860F0B241EA86
:10645800D011AA68C8B2824256D9EA6901F00F0180
:106468001268BFF35F8F92B222FA01F1C9074BD0CD
:10647800A969814240F2C680291D700600F0938008
:1064880002A84A4643460096FFF71BF89DF8080005
:10649800002800F092809DF8090036E000F023FE05
:1064A800044600F013FE2868E1073AD1002840F0BE
:1064B800A3804FF0FF3071002860F0B241EAD0119C
:1064C800AA68C8B2824258D9EA6901F00F01126875
:1064D800BFF35F8F92B222FA01F1C9074DD0A969C3
:1064E800814240F28F80291D70066BD002A84A466F
:1064F80043460096FEF7E5FF9DF8080000286AD09D
:106508009DF8096001243AE005208AF8010001207D
:1065180029688AF80000481C286004B0BDE8000714
:10652800F0BD002868D14FF0FF3071002860F0B24C
:1065380041EAD011AA68C8B2824226D9EA6901F0B4
:106548000F011268BFF35F8F92B222FA01F1C907F7
:106558001BD0A969814255D9291D70063FD002A8D0
:106568004A4643460096FEF7ACFF9DF8080000280F
:106578003ED09DF80960012409E001240526286819
:106588000130286000F0A4FD04E0012405262868F5
:1065980001302860F0B244EA0020CAE9000804B0DB
:1065A800BDE80007F0BD02A84A464346FEF715FDC0
:1065B8009DF8080000287FF46EAF0398CAF804001D
:1065C8000020A5E702A84A464346FEF706FD9DF8C7
:1065D8000800002894D1DDF80C800024CFE702A839
:1065E8004A464346FEF7F9FC9DF808000028C0D14A
:1065F800DDF80C800024CAE740F6CC30C2F2200057
:1066080000F0A9FE40F62032C2F2200200F07CFF22
:10661800F0B503AF4DF8048D044690F83400904669
:106628000D46012801D1206830E000F05CFD0646E7
:1066380000F04CFD2068F10728D100284BD14FF01D
:10664800FF3069002060E8B241EAD011A268C8B200
:10665800824212D9E26901F00F011268BFF35F8F1D
:1066680092B222FA01F1C90707D0A169814238D94B
:10667800201D41462A46FFF7EDF8206801302060CA
:106688005DF8048BBDE8F04000F022BD18BB4FF068
:10669800FF3069002060E8B241EAD011A268C8B2B0
:1066A800824212D9E26901F00F011268BFF35F8FCD
:1066B80092B222FA01F1C90707D0A169814210D923
:1066C800201D41462A46FFF7C5F8206801302060A2
:1066D8005DF8048BF0BD40F6CC30C2F2200000F02B
:1066E8003AFE40F62032C2F2200200F00DFFF0B56B
:1066F80003AF4DF804BD044690F83400012805D1D5
:1067080020686FF00042904222D32CE00E4600F041
:10671800EAFC054600F0DAFC2068E90713D16FF0BF
:10672800004188421FD201302060201D3146FFF70A
:106738001EF9054620680138206000F0C9FC28468B
:106748005DF804BBF0BD6FF0004188420BD23146C2
:1067580001302060201DFFF70AF921680139216006
:106768005DF804BBF0BD40F6BC30C2F2200000F07A
:106778000CFEF0B503AF2DE90007044691F834008C
:106788000D4601280FD12868002840F09480286A17
:106798004FF0FF312960D0F844114A0627D4C907C1
:1067A8002AD100203CE000F09EFC064600F08EFC5A
:1067B8002868F1070DD100287DD1286A4FF0FF31F4
:1067C8002960D0F844114A0631D4C90739D10026C6
:1067D80031E000286FD1286A4FF0FF312960D0F8E6
:1067E80044114A0628D4C90745D1002628E040218B
:1067F800C0F84411012013E00121C0F84411D0F879
:10680800BC11D0F8BC21C9B2C2F3074229861304CF
:10681800C0F8BC31A2806180D0F8AC01E0800220D1
:1068280029682080481C2860BDE80007F0BD402189
:106838000126C0F8441118E040210126C0F844118F
:106848002DE001210226C0F84411D0F8BC11D0F87F
:10685800BC215FFA81F8C2F30749A5F830804FEAF6
:106868000941C0F8BC11D0F8ACA1286801302860F3
:1068780000F02EFC16E001210226C0F84411D0F8E1
:10688800BC11D0F8BC215FFA81F8C2F30749A5F81A
:1068980030804FEA0941C0F8BC11D0F8ACA1286893
:1068A80001302860C9EA0A40606046EA0840206072
:1068B800BDE80007F0BD40F6CC30C2F2200000F081
:1068C8004AFD082A16D10A784B78B1F802C04968FF
:1068D800C0F8021002F08001C17102F01F0183713B
:1068E8000429A0F800C028BF04210172C2F3411195
:1068F8004172704701210170042141727047F0B55F
:1069080003AF2DE90007D0E9058A04460AF1020021
:10691800404518D80AF58076B045354638BF454613
:1069280086422BD32E1A9E420DD3264624698946C9
:10693800114620441A461D4601F032FDA81C0AEBF8
:106948000001414503D90220BDE80007F0BDC2455A
:106958001BD204F80A000AF1010040453FBF04F8C1
:106968000090B1610820BDE8000738BFF0BD40F6CF
:1069780060424146C2F2200200F0C6FD40F64042A5
:106988002946C2F2200201F08EF940F650425046E4
:10699800C2F22002414600F0B7FDF0B503AF2DE981
:1069A800000F87B00D690A46D1F800808E68002D67
:1069B80018BF0325B8F1000F18BF4FF00108002ECB
:1069C80018BF0126D0E9051C0CF1020E8E4504D92A
:1069D800022007B0BDE8000FF0BD0CF580739942A6
:1069E8001C4638BF0C4673455AD3A4EB0E03102B34
:1069F80004D2022007B0BDE8000FF0BD740092F881
:106A080021300294012692F820400394D47F069303
:106A1800B2F818B00494947F538B4FEA1B2A928BD8
:106A28000594D0F81090140A01941C0A00944FF4AD
:106A3800047429F80E4009EB0E04A272009AE6735A
:106A4800029E6272069A6673019E6271039AE672EA
:106A58000CF1120622718E42049AE270059AA5730F
:106A680084F80C80237284F807A084F806B0A2701A
:106A780004D9022007B0BDE8000FF0BD8C4517D23D
:106A88000CF1010312228B4209F80C2017D20121C4
:106A98008661082009F8031007B0BDE8000FF0BDB3
:106AA80040F640427046C2F22002214601F0FBF84F
:106AB80040F650426046C2F2200200F025FD40F642
:106AC80060421846C2F2200200F01EFDF0B503AF86
:106AD8004DF804BD91F82550012291F8233091F822
:106AE800226091F82440002BD0E9051C0CF1020328
:106AF80005770CF10405C0E900256FF07F0518BF84
:106B08006FF03F058B421AD80CF580729142964679
:106B180038BF8E469A422ED3AEEB0302072A0ED315
:106B280064F3451504694FF08072E250E2180023BF
:106B38009671557113710CF109028A4203D902202A
:106B48005DF804BBF0BD8C451DD2092304F80C3058
:106B58000CF101038B423FBF0221E15482610820FE
:106B68003CBF5DF804BBF0BD40F660421846C2F277
:106B7800200200F0C9FC40F640421846C2F220024A
:106B8800714601F090F840F650426046C2F2200289
:106B980000F0BAFC4169032981BF01698069488016
:106BA800704780B56F4640F670420420C2F220025A
:106BB80001F05AF880B56F4684B0D7F808E09446DB
:106BC80000220292CDE9003E634600F003F8C0B20D
:106BD80004B080BDF0B503AF2DE9000B8C4611065B
:106BE80001D041690AE0016801293AD14468416944
:106BF8008C425AD20669355D01353555D0F818E012
:106C08004FF00108D7E904490EF10405002CC0E94A
:106C1800028508BFA1460EF102048C421DD80EF56C
:106C28008075A9422E4638BF0E46A54235D3351B7E
:106C3800072D12D30569D7E9028605F804C02C444C
:106C480062700EF10902E37000238A4284F806900C
:106C5800667184F80480A37007D90220BDE8000B90
:106C6800F0BD0720BDE8000BF0BD8E4524D20923F6
:106C780005F80E300EF101038B423FBF0421E954A1
:106C8800826108203CBFBDE8000BF0BD40F66042C1
:106C98001846C2F2200200F037FC40F64042204677
:106CA800C2F22002314600F0FEFF40F68042204644
:106CB800C2F2200200F028FC40F650427046C2F2B0
:106CC800200200F021FCF0B503AF2DE9000F81B0E0
:106CD8000B468446D0E90510861C8E4204D9022052
:106CE80001B0BDE8000FF0BD884280F09880DCF864
:106CF800105000F1010E00268E452E5480F095802C
:106D080003EB020B2A18032402F1020A05F80E40CD
:106D18004FF0000E00958219BEF1000F02F1020437
:106D280005D04FF0000899468C4234D358E05B45B3
:106D38005BD0994619F9015BB5F1FF3F5FFA85F819
:106D480023DC5D7808F01F0EB8F1E00F05F03F096D
:106D580017D39D78B8F1F00F05F03F0545EA89197A
:106D68002BD3DD7805F03F0545EA89180EF00705B5
:106D780003F1040948EA85480023B3EB184F04D00F
:106D880023E049EA8E1803F102091FFA88FE4FF042
:106D980000088C4224D2131D14F1030F36D88B42FD
:106DA8002DD82AF806E00236C6464B468219BEF1AF
:106DB800000F02F10204B4D1B9E749EA0E3803F131
:106DC80003090023B3EB184FDFD008F57F033725FD
:106DD80065F39F284FF4584545EA932E8C42DAD341
:106DE800022001B0BDE8000FF0BD009AB11CCCF83C
:106DF80018401154082001B0BDE8000FF0BD40F65E
:106E0800B0421846C2F2200200F02EFF40F6B0420F
:106E18006FF00100C2F22002194600F044FF40F66C
:106E28009042C2F2200200F06FFB40F6A04270468A
:106E3800C2F2200200F068FBD0B502AF82680123DD
:106E4800D2E9051E0EF10404C0E900340EF1020374
:106E58008B4216D80EF58074A142A44638BF8C46E2
:106E68009C4230D3ACEB0304032C0AD3D2F810C0F5
:106E780000242CF8034063449C700EF105048C42F6
:106E880001D90220D0BD8E4525D205230CF80E303D
:106E98000EF101038B423FBF0F210CF803109461E0
:106EA80040F6C0423FBFC2F2200202210423BDE8DF
:106EB800D04038BF00F016B840F660421846C2F21B
:106EC800200200F021FB40F640421846C2F22002A0
:106ED800614600F0E8FE40F650427046C2F22002D9
:106EE80000F012FBF0B503AF4DF804BD0568012DA5
:106EF8001AD1D0E901067469A04242D2346903F17B
:106F0800030EBEF1FF0F255C05F1010525549EBF58
:106F1800D6E905C000EB0E0565454FF0020408D917
:106F280020465DF804BBF0BD072420465DF804BB8D
:106F3800F0BD60452CD23569441C05F800E0D6F850
:106F480014C064452BD2D6F810C010250CF8045094
:106F5800841CD6F814C0644529D2356903302955F4
:106F6800C4182CD271698C4230D831690844114652
:106F78001A4601F015FAB461082420465DF804BBEE
:106F8800F0BD40F6C4422146C2F2200200F0BCFA2D
:106F980040F6D4426146C2F2200200F0B5FA40F64B
:106FA800E442C2F220022046614600F0ADFA40F603
:106FB800F442C2F220022046614600F0A5FA40F6EB
:106FC80004522146C2F2200200F06DFE40F604523F
:106FD8002046C2F2200200F047FE826800230360C8
:106FE8005169032981BF106991694180704780B553
:106FF8006F4640F614520420C2F2200200F034FE1C
:107008000146406820283FBF896801EB40104FF4D3
:10701800805100223FBF425000F58050828082712B
:107028003FBFC2718260C26002613FBF8282C2827A
:10703800826182833CBFC283704780B56F4640F649
:1070480084522021C2F2200200F05EFA4EF21000B3
:10705800CEF200000068C00348F25C00C2F20000F3
:107068000AD5BFF35F8F50E8001F013140E80012D6
:10707800002AF8D1BFF35F8F006870474EF2100006
:10708800CEF200000068C00358BF704748F25C00A9
:10709800BFF35F8FC2F2000050E8001F013140E8E3
:1070A8000012002AF8D1BFF35F8F7047D0B502AF46
:1070B80000F019F8012121EA000400F007F8204641
:1070C800D0BD002808BF704700F002B872B67047FC
:1070D80062B67047BFF34F8F7047BFF36F8F70472B
:1070E800EFF308807047EFF310807047006800F0F6
:1070F8008CB980B56F4690B0029044F24040C2F21D
:1071080000000021D0E84F2FC0E8431F002BF9D121
:1071180072B348F26800C2F20000006840B3002071
:1071280040F64801079001200490C2F22001069021
:1071380009A8059044F63D60C0F2000003910A904A
:1071480002A8099040F6F450C2F2200000F0F0F8CE
:1071580040F604610F900D20C2F220010E900BAA98
:10716800CDE90B1003A80D910121002300F079F857
:1071780000F000F880B56F4648F248100521C4F2C7
:107188001F004BF2004301603821C0F8F0114CF2A7
:107198006C00C4F20A0041F6004E01684EF6004C3D
:1071A800C0F2C443C0F64E6E21F0080101604CF2F3
:1071B8008400C2F2601CC4F21B0050F8801C41F02D
:1071C800080140F8801C082101601A46013AFDD1E7
:1071D80041601A46013AFDD101601A46013AFDD1D3
:1071E80041601A46013AFDD101601A46013AFDD1C3
:1071F80041607246013AFDD101607246013AFDD103
:1072080041601A46013AFDD101607246013AFDD14A
:1072180041601A46013AFDD101607246013AFDD13A
:1072280041607246013AFDD101601A46013AFDD12A
:1072380041601A46013AFDD101601A46013AFDD172
:1072480041601A46013AFDD101601A46013AFDD162
:1072580041606246013AFDD1B6E7002070477047A9
:107268007047F0B503AF2DE9000F97B0002B0591DB
:107278004BD1D2E9009A44F2444ED2E90263C2F2F9
:10728800000E12690168049141680291D0E9028BED
:10729800D0E90451D2E90040D2F808C048F26402AB
:1072A800C2F2000212680192BFF35F8FCDE90C4071
:1072B800029812900498119005980E9000200B9057
:1072C800CDE907C00120CDE91551069040F61460BC
:1072D8000199C2F22000DEE9002E03920229CDE9CD
:1072E8000963CDE9138BCDE90F9A08BF704602698F
:1072F80040F62C60C2F22000039908BF084606A990
:10730800904717B0BDE8000FF0BD0121002007919C
:1073180040F67861C2F220010A9009900420069193
:1073280040F6E061089006A8C2F2200100F0CDF80E
:107338007047D1E9050240F6F061D368C2F2200136
:107348000B221847D1E9050240F6FB61D368C2F267
:1073580020010E22184780B56F468AB001460020EA
:1073680005900120029040F61C72049007A8039033
:1073780045F29500C0F20000C2F220020890781E83
:10738800079001A8019200F0A0F880B56F468AB076
:107398000146002005900120029040F640720490BA
:1073A80007A8039045F28300C0F20000C2F2200251
:1073B8000890781E079001A8019200F086F880B521
:1073C8006F46024640F64970C2F220002B2100F0B9
:1073D80087F880B56F468AB0CDE900010020069095
:1073E8000120039040F64801059008A8049046F251
:1073F8004100C0F20000C2F22001099068460890DE
:1074080002A80291114600F060F8F0B503AF2DE92B
:10741800000F8DB0D1E905BA40F68C71DAF80C602E
:107428008146C2F220010C225846B04720B1012003
:107438000DB0BDE8000FF0BD40F674720021D9F818
:107448000400C2F2200205910321019200F10C020E
:1074580002910DF11C08049145F64B71C0F2000130
:10746800CDF80C80CDE90A1201AA0C9100F10801AF
:10747800099146F24101C0F20001CDE907015846E1
:10748800514600F084F820B101200DB0BDE8000F8E
:10749800F0BD40F698715846C2F220010222B0476A
:1074A80020B101200DB0BDE8000FF0BDD9F800C033
:1074B80041469CE87D007DC158465146424600F051
:1074C80066F80DB0BDE8000FF0BD80B56F4684B01A
:1074D800CDE9010101A80122ADF80C20FFF709FE52
:1074E80080B56F4688B094460122019206AA00230F
:1074F800CDE906010092042268466146049303938D
:107508000292FFF7E2FF000080B56F468CB0CDE92C
:107518000001002006900220084902916946039064
:10752800059008A804900648CDE9090111460B907A
:1075380001A8089002A8FFF7C8FF00BFAC0F2020E1
:107548004B5F000080B56F468EB08DE80F000020BD
:1075580040F6C071089002200590C2F22001079001
:107568000AA8069046F23900C0F20000D7F808C011
:107578000D9002A80C9046F24100C0F20000049160
:107588000B9068460A9004A86146FFF79EFFF0B585
:1075980003AF2DE9000F8DB0032316698DF8303045
:1075A800202308930023002ECDE90A13099006939F
:1075B800049369D05069002800F09180D2F800A0A7
:1075C8004101D2F808B0013820F078404FF00008A7
:1075D8004FF0000901300292039101900AEB090172
:1075E8004A683AB1DDE909030968DB689847002869
:1075F80040F0858006EB0800036906EB8900D0E9B6
:107608000221057F846908938DF830500B947AB174
:10761800012A02D15BF831203AB1002256F808302D
:10762800CDE90421022B0AD10FE00BEBC101496817
:10763800012256F80830CDE90421022B05D0416813
:10764800012B07D15BF831200AB1002203E00BEBD4
:10765800C101496801224369079106920BEBC301F6
:107668005BF833004B6804A99847002847D1039872
:1076780008F1200809F108094045AFD1DDE901A268
:107688005068824530D33FE0D06840B394680DF12C
:107698001008D2F800B0002604EBC009013820F029
:1076A8006040029200F1010A0BEBC6014A682AB158
:1076B800DDE909030968DB68984700BB04EBC605E8
:1076C8004146D5E900029047C8B905F108000136DE
:1076D8004845E9D1029A5068824505D314E04FF035
:1076E800000A506882450FD21268DDE90901CB68AB
:1076F80052F83A1002EBCA025268984720B10120AA
